{
  "contractName": "Remittance",
  "abi": [
    {
      "constant": true,
      "inputs": [
        {
          "name": "",
          "type": "address"
        }
      ],
      "name": "balances",
      "outputs": [
        {
          "name": "",
          "type": "uint256"
        }
      ],
      "payable": false,
      "stateMutability": "view",
      "type": "function"
    },
    {
      "constant": true,
      "inputs": [],
      "name": "owner",
      "outputs": [
        {
          "name": "",
          "type": "address"
        }
      ],
      "payable": false,
      "stateMutability": "view",
      "type": "function"
    },
    {
      "inputs": [],
      "payable": false,
      "stateMutability": "nonpayable",
      "type": "constructor"
    },
    {
      "constant": false,
      "inputs": [
        {
          "name": "_recipient",
          "type": "address"
        },
        {
          "name": "_puzzleSolution",
          "type": "bytes32"
        }
      ],
      "name": "createRemittance",
      "outputs": [],
      "payable": true,
      "stateMutability": "payable",
      "type": "function"
    },
    {
      "constant": false,
      "inputs": [
        {
          "name": "_userPuzzleSolution",
          "type": "bytes32"
        }
      ],
      "name": "completeRemittance",
      "outputs": [
        {
          "name": "",
          "type": "bool"
        }
      ],
      "payable": false,
      "stateMutability": "nonpayable",
      "type": "function"
    }
  ],
  "bytecode": "0x608060405234801561001057600080fd5b5033600260006101000a81548173ffffffffffffffffffffffffffffffffffffffff021916908373ffffffffffffffffffffffffffffffffffffffff160217905550610535806100616000396000f300608060405260043610610062576000357c0100000000000000000000000000000000000000000000000000000000900463ffffffff16806327e235e3146100675780633a92ca75146100be57806340b4d959146101075780638da5cb5b1461014b575b600080fd5b34801561007357600080fd5b506100a8600480360381019080803573ffffffffffffffffffffffffffffffffffffffff1690602001909291905050506101a2565b6040518082815260200191505060405180910390f35b3480156100ca57600080fd5b506100ed60048036038101908080356000191690602001909291905050506101ba565b604051808215151515815260200191505060405180910390f35b610149600480360381019080803573ffffffffffffffffffffffffffffffffffffffff1690602001909291908035600019169060200190929190505050610360565b005b34801561015757600080fd5b5061016061048b565b604051808273ffffffffffffffffffffffffffffffffffffffff1673ffffffffffffffffffffffffffffffffffffffff16815260200191505060405180910390f35b60006020528060005260406000206000915090505481565b60006101c46104b1565b60008084600381600019169055506001600060035460001916600019168152602001908152602001600020608060405190810160405290816000820160009054906101000a900473ffffffffffffffffffffffffffffffffffffffff1673ffffffffffffffffffffffffffffffffffffffff1673ffffffffffffffffffffffffffffffffffffffff1681526020016001820160009054906101000a900473ffffffffffffffffffffffffffffffffffffffff1673ffffffffffffffffffffffffffffffffffffffff1673ffffffffffffffffffffffffffffffffffffffff168152602001600282015481526020016003820154600019166000191681525050925082604001519150826020015190508073ffffffffffffffffffffffffffffffffffffffff163373ffffffffffffffffffffffffffffffffffffffff1614151561030d57600080fd5b3373ffffffffffffffffffffffffffffffffffffffff166108fc839081150290604051600060405180830381858888f19350505050158015610353573d6000803e3d6000fd5b5060019350505050919050565b60003411151561036f57600080fd5b6080604051908101604052803373ffffffffffffffffffffffffffffffffffffffff1681526020018373ffffffffffffffffffffffffffffffffffffffff168152602001348152602001826000191681525060016000836000191660001916815260200190815260200160002060008201518160000160006101000a81548173ffffffffffffffffffffffffffffffffffffffff021916908373ffffffffffffffffffffffffffffffffffffffff16021790555060208201518160010160006101000a81548173ffffffffffffffffffffffffffffffffffffffff021916908373ffffffffffffffffffffffffffffffffffffffff16021790555060408201518160020155606082015181600301906000191690559050505050565b600260009054906101000a900473ffffffffffffffffffffffffffffffffffffffff1681565b608060405190810160405280600073ffffffffffffffffffffffffffffffffffffffff168152602001600073ffffffffffffffffffffffffffffffffffffffff168152602001600081526020016000801916815250905600a165627a7a72305820edd6b1906c7757f3b84e2cd940e5a7da2884dec3c8dc7d9db1479adcef0b3ce20029",
  "source": "pragma solidity ^0.4.4;\n\n\ncontract Remittance {\n  struct RemittanceFunds {\n    address owner;\n    address recipient;\n    uint amountToSend;\n    bytes32 puzzleSolution;\n  }\n\n  mapping (address => uint) public balances;\n  mapping(bytes32 => RemittanceFunds) remittances;\n\n  address public owner;\n  /* address public recipient; */\n  /* uint public amountToSend; */\n  /* bytes32 private puzzleSolution; */\n  bytes32 private userPuzzleSolution;\n\n  constructor() {\n    owner = msg.sender;\n  }\n\n  function createRemittance(address _recipient, bytes32 _puzzleSolution) payable {\n    require(msg.value > 0);\n    remittances[_puzzleSolution] = RemittanceFunds(msg.sender, _recipient, msg.value, _puzzleSolution);\n  }\n\n  function completeRemittance(bytes32 _userPuzzleSolution) returns (bool){\n    userPuzzleSolution = _userPuzzleSolution;\n\n\n\n    RemittanceFunds memory remittance = remittances[userPuzzleSolution];\n\n    uint amountOwed = remittance.amountToSend;\n\n    address fundsRecipient = remittance.recipient;\n    require(msg.sender == fundsRecipient);\n\n    // if the puzzle Solution matches the original puzzle, accept it and allow money out\n    msg.sender.transfer(amountOwed);\n\n    return true;\n  }\n\n  // TODO: add a feature to allow original person to cancel transaction\n  /* function cancelRemittance() {\n  } */\n}\n",
  "sourcePath": "/Users/randallkanna/Documents/code/eth/remittance/contracts/Remittance.sol",
  "compiler": {
    "name": "solc",
    "version": "0.4.23+commit.124ca40d.Emscripten.clang"
  },
  "schemaVersion": "2.0.0",
  "updatedAt": "2018-05-25T05:59:56.537Z"
}